:020000040800F2
:100000002007002045010008510700084D050008A1
:10001000E9060008630300089911000800000000C9
:1000200000000000000000000000000009090008B6
:100030006904000800000000CD070008830B0008D9
:100040005F0100085F0100085F0100085F01000810
:100050005F0100085F0100085F0100085F01000800
:100060005F0100085F0100085F0100085F010008F0
:100070005F0100085F0100085F0100085F010008E0
:100080005F0100085F0100085F0100085F010008D0
:100090005F0100085F0100085F0100085F010008C0
:1000A0005F0100085F0100085F0100085F010008B0
:1000B000C50B0008E50B00085F0100085F010008A0
:1000C0005F0100085F0100085F0100085F01000890
:1000D0005F0100085F0100085F010008F90F0008D8
:1000E0005F0100085F0100085F0100085F01000870
:1000F0005F0100085F0100085F0100085F01000860
:100100005F0100085F0100085F0100085F0100084F
:100110005F0100085F0100085F0100085F0100083F
:100120005F0100085F0100085F0100085F0100082F
:10013000DFF80CD000F0A2F8004800479D16000838
:10014000200700200648804706480047FEE7FEE7F4
:10015000FEE7FEE7FEE7FEE7FEE7FEE7FEE7FEE777
:10016000850B00083101000830B505462A460B46CC
:1001700012F8010B13F8014B08B1A042F8D01CB1E2
:10018000002802D06D1CF1E7284630BD10B50446AA
:1001900004E00B7800F8013B03B1491C521EF8D271
:1001A000204610BDCAB2401E10F8011F8A4202D07C
:1001B0000029F9D100207047421C10F8011B0029CA
:1001C000FBD1801A704770B5064601F0B3F8046899
:1001D00005460A220021304600F018F82C6070BD58
:1001E00030B50B46014600202022012409E021FA07
:1001F00002F59D4205D303FA02F5491B04FA02F504
:100200002844151EA2F10102F1DC30BD2DE9F047B2
:1002100091460F4680460446002614F8015B2DB136
:1002200000F03EF80068405DC007F6D12B2D02D0EB
:100230002D2D18D0641E4A463946204600F034F869
:1002400027B13968A14201D1C7F8008071054FF08C
:1002500002040BD54042002803DD01F06BF8046076
:10026000A007BDE8F08746F48066E4E70028F8DAE6
:1002700001F060F804606FF00040F2E7064C074DB3
:1002800006E0E06840F0010394E807009847103466
:10029000AC42F6D3FFF750FFF01D0008101E000817
:1002A00000487047EC1D00082DE9F05F8246007899
:1002B000002715468B460AF10104B946302801D0C3
:1002C0009DB113E014F8010B0127782803D05828BA
:1002D00001D045B10AE00DB1102D07D1002710253E
:1002E00014F8010B02E0082500E00A250026B046BC
:1002F0000EE005FB080005FB06F1012701EB1046A7
:100300001FFA80F8B6F5803F00D3B94614F8010B08
:10031000294600F018F80028EBDABBF1000F05D0F1
:100320000FB1641E00E05446CBF80040B9F1000F55
:1003300006D000F0FFFF02210160C81EBDE8F09F5B
:1003400048EA0640FAE73A2800D2303820F0200286
:10035000412A01D3A2F13700884201D34FF0FF3088
:100360007047FEE770B5094D4FF4C8742146284622
:1003700000F052FD2146284600F050FD04480021BF
:10038000C0F888110121C0F88C1170BD0004004034
:100390000000214270B5094D4FF4C874214628462B
:1003A00000F03AFD2146284600F038FD04480121BE
:1003B000C0F888110021C0F88C1170BD0004004005
:1003C0000000214210B5084CC821204600F026FD4F
:1003D0004FF4C871204600F01FFD04480121C0F809
:1003E0008811C0F88C1110BD0004004000002142AB
:1003F00010B5084C4FF4C871204600F00FFDC8211D
:10040000204600F009FD04480021C0F88811C0F81A
:100410008C1110BD000400400000214270B50C4D4D
:1004200040F283342146284600F0F6FC2146284657
:1004300000F0F4FC07480121C0F888110021C0F841
:100440008C11BDE870404FF4FA7001F05DB8000007
:100450000004004000002142024800210170417068
:100460008170704738000020704710B501210420CA
:1004700000F0F4F90121082000F0F0F9012110202A
:1004800000F0ECF90121202000F0E8F901214020E2
:1004900000F0E4F90121802000F0E0F90121BDE83D
:1004A0001040080200F0DAB9F0B5CC78002204F070
:1004B0000F03E40601D58C7823430C784FF00F0C22
:1004C00014F0FF0F4FF0010E1BD005680E880EFAD6
:1004D00002F42640A64210D196000CFA06F725EA4F
:1004E000070703FA06F5CE783D43282E02D0482EA2
:1004F00002D002E0446100E00461521C082AE5D306
:1005000005600A88FF2A1CD94468002202F1080607
:100510000EFA06F50E882E40AE420ED196000CFA69
:1005200006F7BC4303FA06F7CE783C43282E00D1E9
:100530004561CE78482E00D10561521C082AE5D3CA
:100540004460F0BD4161704701617047FEE7000003
:1005500070B5002400F02EF8642000F0D5FF38209C
:1005600000F05EF80C2000F05BF8062000F058F870
:10057000012000F055F8642000F0C6FF802000F054
:100580004FF80B4D285D00F07DF8641C64B20B2C15
:10059000F8DBC02000F044F8054D00240C35285D40
:1005A00000F070F8641C64B2082CF8DB70BD000029
:1005B000541D0008F8B54FF40050ADF800001025A8
:1005C000154E8DF8035003248DF8024069463046DD
:1005D000FFF76AFFA802ADF800008DF803508DF810
:1005E000024069463046FFF75FFFE802ADF80000C1
:1005F0008DF803508DF8024069463046FFF754FFEE
:10060000FF20ADF800008DF803508DF802406946D8
:100610000248FFF749FFF8BD00100140001C0140EF
:1006200070B50446142000F089FF14494FF47F028E
:100630000A600C60124C49142046FFF783FF4FF408
:1006400080412046FFF77EFF4FF4004529462046B3
:10065000FFF778FF0A2000F071FF29462046FFF7D8
:1006600073FF0A2000F06AFF29462046FFF76AFF61
:10067000BDE870400A2000F061BF0000101C01407E
:100680000010014070B50446142000F057FF1449D3
:100690004FF47F020A600C60124C49142046FFF7A9
:1006A00053FF4FF480412046FFF74CFF4FF40045C5
:1006B00029462046FFF746FF0A2000F03FFF294663
:1006C0002046FFF741FF0A2000F038FF2946204668
:1006D000FFF738FFBDE870400A2000F02FBF000090
:1006E000101C014000100140FEE7000038B5012158
:1006F000042000F0B3F80420ADF8000010208DF8BD
:1007000003000320104C8DF8020069462046FFF7D5
:10071000CBFE04212046FFF715FF0821ADF800109D
:1007200069462046FFF7C0FE08212046FFF70CFF70
:10073000064D40F283342146284600F06DFB2146E9
:10074000284600F06BFB38BD000801400004004063
:100750007047000030B50F23C27801780125F2B14F
:10076000144A126801F1E02102F4E062C2F5E0628D
:10077000120AC2F10404D3404278A24084781C409B
:100780001443220181F80024007800F01F018D40FD
:100790004009800000F1E020C0F8005130BD01F0B8
:1007A0001F0085404809800000F1E020C0F880511A
:1007B00030BD00000CED00E002490843024908602A
:1007C000704700000000FA050CED00E070470000E3
:1007D00010B5064C0146204600F0D4FC40212046CE
:1007E00000F037FC0028F9D010BD000000480040A0
:1007F00070B50446124D0AE081B22846641C00F030
:10080000C1FC4021284600F024FC0028F9D094F9CE
:1008100000000028F0D10D21284600F0B3FC402153
:10082000284600F016FC0028F9D00A21284600F0DE
:10083000A9FC4021284600F00CFC0028F9D070BD2E
:1008400000380140044A0029D16901D0014300E089
:100850008143D1617047000000100240044A002922
:10086000916901D0014300E081439161704700002C
:100870000010024030B5204A5168204B11F00C01A5
:1008800003D0042901D0082901D0036012E0516887
:10089000536801F470114FF0020413F4803F04EB2D
:1008A000914102D053689B0301D5154B00E0134BD7
:1008B0005943016051680F2303EA1111114B5C5C2D
:1008C0000168E14041605468072505EA14241C5D75
:1008D00021FA04F48460546805EAD4241B5DD940ED
:1008E000C1605268032303EA9232064B1B1F9A5CD5
:1008F000B1FBF2F1016130BD0010024000127A003C
:1009000000093D00100000207047000005480178F4
:100910004078081A6021603090FBF1F201FB120070
:1009200070470000380000200D4B10B51A78602188
:10093000521CB2FBF1F401FB14225C78A2420AD0F3
:10094000084A1C7810551878401CB0FBF1F201FBE6
:100950001200187001E001209870012010BD000005
:1009600038000020C00000207CB50F4E012908D0BF
:1009700000290FD16D4602680CA1284600F0C6FC84
:100980000DE0044603E0B168C0B2641C88472078DB
:100990000028F8D17CBDB168C0B26D1C88472878AA
:1009A0000028F8D17CBD000038000020256400003C
:1009B00010B5FFF7D9FF044C0D20A1688847A16846
:1009C000BDE810400A200847380000200A4B10B547
:1009D00058781978884202D14FF0FF3010BD07488F
:1009E0005978405C59786022491CB1FBF2F402FB53
:1009F0001411597010BD000038000020C000002004
:100A000038B54FF48054ADF8004010208DF8030045
:100A10000320064D8DF8020069462846FFF744FD85
:100A200021462846FFF790FD38BD00000014014024
:100A30000CB50022264800920192016841F48031F1
:100A400001604FF4A063016801F400310191009945
:100A5000491C0091019911B900999942F3D101689B
:100A6000890333D5012101911A490A6842F0100225
:100A70000A600A6822F003020A600A6842F0020271
:100A80000A604168416041684160416841F48061A9
:100A90004160416821F47C114160416841F4E811F2
:100AA0004160016841F08071016001688901FCD5F5
:100AB000416821F003014160416841F00201416059
:100AC0004168C1F381010229FAD10CBD01920CBD2C
:100AD000001002400020024070B50D460446FFF7AA
:100AE0006BFB255420440021417070BD10B50446B5
:100AF000FFF73AFB08B1001B10BD4FF0FF3010BDEF
:100B00002DE9F04115460F460446FFF755FB4FF01F
:100B1000FF36A84207D360193946FFF743FB10B1EF
:100B2000001BBDE8F0813046FBE7FFF745BB2DE930
:100B3000F0411D46144680460E464FF0FF37AA424C
:100B400004DC0846FFF738FBA84202D23846BDE86D
:100B5000F0812D1B6A1C31194046FFF717FB05EB8E
:100B60000800002141700120F1E74FF0E021042846
:100B7000086903D020F004000861704740F00400C9
:100B8000FAE770470C48016841F0010101604168D3
:100B90000A4A114041600168094A11400160016838
:100BA00021F480210160416821F4FE0141604FF48D
:100BB0001F018160FFF73CBF001002400000FFF8FA
:100BC000FFFFF6FE10B501218C07204600F087F8E4
:100BD000002805D02046BDE81040012100F072B881
:100BE00010BD000010B5074C0121204600F077F839
:100BF000002805D02046BDE81040012100F062B871
:100C000010BD0000000400402DE9F0418846074671
:100C100088B001210220FFF715FE01210420FFF713
:100C20001DFE8020ADF810001824244E8DF81340CE
:100C300003258DF8125004A93046FFF735FC4020FB
:100C4000ADF810008DF813408DF8125004A930460D
:100C5000FFF72AFCADF818700024194FADF8148086
:100C6000ADF81A40ADF8164005A9384600F0D8F89E
:100C70007026ADF800600125ADF80250ADF80840CF
:100C80006946384600F07EF80821384600F0BAF888
:100C9000ADF80060ADF80250ADF80840694638463E
:100CA00000F02AF80821384600F066F8012138469D
:100CB00000F00BF808B0BDE8F0810000000801402A
:100CC00000040040C943018270470029018802D016
:100CD00041F0010101E021F001010180704702466D
:100CE0000020138A92890B4202EA010202D0002AF4
:100CF00000D001207047000030B5028C22F00102C4
:100D00000284028C8388048B22F0020224F0730593
:100D10000C882C430D8915434A882A43114DA8425B
:100D20000BD0114DA84208D0104DA84205D0104D4F
:100D3000A84202D00F4DA8420DD122F008054A89E1
:100D400023F440732A4322F004058A882A438D89BC
:100D50001D43CB892B4383800483C9888186028409
:100D600030BD0000002C0140003401400040014033
:100D70000044014000480140028B22F008020A436F
:100D80000283704770B5028C22F010020284028C3C
:100D90008388048B0D8824F4E6464FF6FF7404EA3A
:100DA000052535430E8922F0200204EA0616164373
:100DB0004A8804EA02123243104EB04202D0104E6A
:100DC000B04215D122F080064A8923F4406304EA38
:100DD0000212324322F040068A8804EA02123243A9
:100DE0008E8904EA86061E43CB8904EA83033343D3
:100DF00083800583C9880187028470BD002C01406F
:100E000000340140028B4FF6FF7322F4006203EAC4
:100E10000121114301837047818670470187704724
:100E200030B502881B4C1C4DA0420DD0A8420BD0FF
:100E3000B0F1804F08D0194B984205D0184B98421A
:100E400002D0184B984203D122F070034A881A430B
:100E5000154B984206D0154B984203D022F44073AC
:100E6000CA881A4302808A8882850A880285A0423D
:100E70000AD0A84208D00E4A904205D00D4A9042AE
:100E800002D00D4A904201D1097A01860121818266
:100E900030BD0000002C014000340140000400403F
:100EA00000080040000C004000100040001400400A
:100EB00000400140004401400048014030B5044674
:100EC00085B0012144F20400FFF7C8FC4FF4007123
:100ED000ADF8101002218DF812101820164D8DF863
:100EE000130004A92846FFF7DFFA04218DF8131038
:100EF0000802ADF8100004A92846FFF7D5FA002033
:100F0000ADF804000094ADF80600ADF80800ADF8A7
:100F10000C000C20094CADF80A006946204600F090
:100F2000D7F80121204600F08AF84021204600F041
:100F30007DF805B030BD00000008014000380140D8
:100F400070B50446012186B08804FFF77BFC0121BF
:100F50000820FFF783FC4FF48060ADF810000225F5
:100F60008DF812501820224E8DF8130004A9304637
:100F7000FFF79AFA04218DF813104802ADF810001B
:100F800004A93046FFF790FA00940024ADF8084019
:100F90000C20184EADF80440ADF80A00ADF806403C
:100FA000ADF80C406946304600F092F8012240F25C
:100FB0002551304600F073F80121304600F03FF82B
:100FC0004021304600F032F84FF4E060FFF7F4FBC8
:100FD00027208DF814008DF815408DF8165001204B
:100FE0008DF8170005A8FFF7B5FB06B070BD00002F
:100FF000000C01400048004070B50B4C40F22555F4
:101000002946204600F02CF800280BD0294620461F
:1010100000F00FF8204600F0B1F8BDE87040C0B213
:10102000FFF782BC70BD000000480040C94301804A
:1010300070470A0A01219140C94301807047002985
:10104000818902D041F4005101E021F400518181F5
:1010500070470246002012880A4200D001207047E3
:1010600070B501F01F0501260024C1F3421306FAF2
:1010700005F2012B0FD0022B0FD0838A4FEA1121EA
:101080000088134206FA01F600EA060001D000B11A
:101090000124204670BD8389F0E7038AEEE710B58E
:1010A000C1F3421301F01F040121A140012B07D01D
:1010B000022B07D01430002A026805D00A4304E04E
:1010C0000C30F8E71030F6E78A43026010BD0000EC
:1010D00030B50446008A85B00D464CF6FF710840D5
:1010E000E98801432182A0894EF6F3110840A988BE
:1010F0002A8911436A8902431143A181A08A4FF6CC
:10110000FF410840A9890143A1826846FFF7B2FB6D
:101110001948844201D1039800E00298A18909048A
:1011200000EBC00101EB0010296801D5490000E087
:101130008900B0FBF1F06422B0FBF2F109010B0968
:101140006FF018056B4300EB8300A3891D044FF07B
:10115000320306D503EBC000B0FBF2F000F007004D
:1011600005E003EB0010B0FBF2F000F00F000843C5
:10117000208105B030BD0000003801408088C0F3F8
:1011800008007047C1F3080181807047014BC3E933
:101190000112084738000020FEE700002DE9F8435F
:1011A0004FF48075ADF800501026DFF840808DF8C0
:1011B000036003278DF8027069464046FFF774F913
:1011C0006C00ADF800408DF803608DF80270694640
:1011D0004046FFF769F929464046FFF7B3F9214633
:1011E0004046FFF7AFF9BDE8F8830000001C01405E
:1011F0002DE9F04107461C4615460E4625A0FFF78F
:10120000F7FA00F055FC0028FBD024A0FFF7F0FA15
:1012100000F068FD0028FBD023A0FFF7E9FA26A024
:10122000FFF7E6FA3846FFF7E3FA25A0FFF7E0FA02
:101230003046FFF7DDFA3146384600F02DFAD8B1D6
:1012400022A0FFF7D5FA00F093F90028FBD04FF465
:10125000FA662146284600F031F988B11EA0FFF752
:10126000C7FA4FF47A7000F04FF900F0DBF9032869
:101270000DD00020BDE8F0811BA0FFF7B9FACBE745
:101280001DA0FFF7B5FA304600F03EF9E1E7012076
:10129000F0E70000526573746172740052657374F4
:1012A000617274204F4B00006C696E6B2041502EB0
:1012B0002E2E0D0A00000000535349443A0000004E
:1012C00070617373776F72643A0000006C696E6BC3
:1012D000204150204F4B000063726561746520749B
:1012E0006370206F6B0D0A006C696E6B204150209B
:1012F0006661696C0D0A0000637265617465207433
:101300006370206572720D0A000000000FB4084B74
:1013100010B504A902AA039800F020F8044602A917
:10132000002000F0C5F8204610BC5DF814FB00005A
:10133000B1140008004870474C00002002E008C8C3
:10134000121F08C1002AFAD170477047002001E03F
:1013500001C1121F002AFBD1704700002DE9FF4F89
:1013600089B09B460446002506E025280BD05A4646
:101370000B999047641C6D1C20780028F5D10DB0A6
:101380002846BDE8F08F0027B8460122474900E013
:10139000074314F8013F203B02FA03F00842F7D15B
:1013A00020782E2819D114F8010F47F004072A28B5
:1013B0000ED06FF02F022078A0F1300109290CD84F
:1013C00008EB880102EB410100EB0108641CF2E725
:1013D0000A98641C50F8048B0A9020780028CED01C
:1013E000642808D0692806D075281ED05A460B9963
:1013F00090476D1C58E00A994FF00A0901C90A91FB
:10140000002802DA40422D2102E0390504D52B21C3
:101410008DF82010012103E0F90704D02021F7E71F
:101420008A4608AE0DE00021FAE70A994FF00A0952
:1014300001C90A91F7E74946FEF7D2FE303106F8B6
:10144000011D0028F7D1ADEB060000F12009780757
:1014500001D44FF00108C84502DDA8EB090000E007
:1014600000208046002706E008A85A46C05D0B9978
:1014700090476D1C7F1C5745F6DB04E030205A4630
:101480000B9990476D1CB8F10001A8F10108F5DC3B
:1014900005E016F8010B5A460B9990476D1CB9F1FF
:1014A0000001A9F10109F4DC641C65E709280100C9
:1014B0000A68531C0B601070704700000A46014612
:1014C00001A000F01FBB00005443500010B56FF0A6
:1014D0000400FFF74AFB094809490068B0FBF1F036
:1014E0000849C0B200EB40020870C2EBC0104FF6D2
:1014F000FF7202EAC000488010BD000020000020FA
:1015000000127A00080000200B49498848434FF038
:10151000E021486100238B61086940F00100086107
:101520000869C20701D0C003FAD5086920F001009C
:1015300008618B6170470000080000200B490978A2
:1015400048434FF0E021486100238B61086940F077
:10155000010008610869C20701D0C003FAD5086913
:1015600020F0010008618B61704700000800002036
:1015700038B500200090FEF76FFF01210CA0FFF7A7
:10158000F3F900216846FFF713FA0C48002464239E
:1015900004700BA20E4900F061FA0D490748FFF7ED
:1015A000A5FA401C01D0012038BD204638BD0000FE
:1015B00041542B4349504D55583D000060000020D8
:1015C0004C696E6B206973206275696C6465640098
:1015D000001B000810B5002821D0114B0022001F6D
:1015E000196803E0814203D80A4649680029F9D105
:1015F00052B11368841A9C4204D1006818441060E8
:10160000104602E0506000E0186039B102680B1A21
:10161000934203D10B681A4402604968416010BDCF
:101620004400002038B5102000F0DCF80446FEF736
:1016300013FF01210EA0FFF7BBF9642000902346A1
:101640000FA211A1114800F01FF911A12046FFF7C8
:101650004DFA411C07D0C01D25562046FFF7BAFFA2
:10166000A5F1300038BD2046FFF7B4FF002038BD9B
:1016700041542B43495053544154555300000000EA
:101680000D0A0D0A4F4B00000D0D0A00001B00084B
:101690005354415455533A0000F0B0BA4FF4165029
:1016A000FFF70CFC38A0FFF7A3F8FFF70FFFFEF7DA
:1016B000DCFEFFF773FDFEF74BFF002140F28330A5
:1016C000FFF7A2FAFFF712F8FFF79AF9324A334907
:1016D0004FF4E130FFF75AFD4FF4FA70FFF714FFB3
:1016E0002F4C4FF480712046FEF72EFF4FF4166505
:1016F0002B462CA22FA132A0FFF77AFD0028F7D0AD
:101700004FF400712046FEF71FFF0025304CFFF715
:10171000FDF8052816DD642210212E4800F098F807
:1017200000280FDD2B4894F9001090F90000814249
:1017300002D16178012902D10121A17020703C20E1
:1017400060706560A0780128E1D1A57094F900006F
:101750004138092814D2DFE800F005080B0E1313F6
:1017600013131100FEF716FE0AE0FEF7FBFD07E07B
:10177000FEF728FE04E0FEF73BFE01E0FEF74EFE1A
:1017800015A0FFF735F8C2E753797374656D2053E0
:101790007461727400000000D1070008410F000856
:1017A000001C01403139322E3136382E312E313085
:1017B0003600000036303630345F3235000000002D
:1017C00054502D4C494E4B5F3833443400000000D8
:1017D00000000020500000207265637620434F4DCA
:1017E0004D000000F0B50B30154D20F0070100242E
:1017F000144A0FE003688B420BD38B4205D95E1A63
:1018000043184768C3E9006700E04368136002C0FB
:1018100004E0021D10680028ECD12046002802D107
:10182000286808B10020F0BD064A07481060074A42
:10183000121A22F00702C0E9002401202860D7E72D
:101840004800002044000020240100202003002044
:1018500038B5002413462246009400F049F838BDFC
:1018600010B5084B0A460021197004460146184677
:1018700000F0D2F821460348FFF738F9401C00D0A9
:10188000012010BD600000202DE9F047174F1446DD
:10189000884605460026089A014699463E70384615
:1018A00000F0BAF829463846FFF720F9401C19D055
:1018B00041463846FFF71AF9054621463846FFF7F4
:1018C00015F90446681C0DD0601C0BD04046FFF78C
:1018D0002CF94219631E39464846FFF728F90120C2
:1018E000BDE8F0873E700020FAE7000060000020AD
:1018F0002DE9FF4F4FF0000683B0434900965FEAA1
:1019000000093546B0460E707CD04049D1F800A0A1
:101910008B463FE0FEF7FAFF002805DDFFF756F89B
:1019200041B23948FFF7D8F839A13748FFF7DEF858
:101930000446401C2ED0621D3A213348FFF7E0F8E0
:101940000746401C26D0621D2C212F48FFF7D8F8EF
:101950000646401C1BD0BE4219DA3346621D2A4996
:101960006846FFF7E4F86846FEF72DFC4FFA80F86A
:10197000B8F1050F46D23B46721C23496846FFF773
:10198000D6F86846FEF71FFC051E3BDD0BE03B4624
:10199000621DF2E7DBF800100698A1EB0A01814214
:1019A000B8D3009828B304980024854201D907468B
:1019B00000E02F46DBF800A01CE0FFF707F809F86D
:1019C0000400641CFEF7A2FF002801DDBC42F4D332
:1019D000BC420FD1FEF740FD059800B1056026B16D
:1019E000109810B1109981F80080384607B0BDE812
:1019F000F08F07E0DBF8001040F6B830A1EB0A01E9
:101A00008142DFD30020F1E7600000203400002095
:101A10002B4950442C0000002DE9F0410E4E154694
:101A20000F468046346810E0FEF7D0FF41B211B196
:101A30004046FFF751F8FEF769FF0028F4DC39460D
:101A40004046FFF753F8401C03D13068001BA84202
:101A5000F1D30120BDE8F081340000202DE9F047EA
:101A6000124E1D46174688468146346816E0FEF73A
:101A7000ADFF41B211B14846FFF72EF8FEF746FF21
:101A80000028F4DC41464846FFF730F8401C09D1F5
:101A900039464846FFF72AF8401C03D13068001B3E
:101AA000A842EBD30120BDE8F087000034000020FD
:101AB00010B5FEF7D1FC01210EA0FEF779FF4FF41F
:101AC000FA60FFF721FDFEF7C7FC01210BA0FEF72E
:101AD0006FFF64210AA0FFF7C3FE28B140F2DC507B
:101AE000FFF712FD012010BD6420FFF70DFD00205F
:101AF00010BD000041542B525354000041540000CB
:101B00004F4B00002DE9F84F0D462D4904460020AB
:101B100000920870FEF7A0FC01212AA0FEF724FF26
:101B200001212046FEF720FF01212AA0FEF71CFF1D
:101B300001212846FEF718FF012127A0FEF714FF18
:101B400000216846FEF734FFDFF874A00FF28C091D
:101B50000FF28C08284E24A742F2107534681CE05E
:101B6000FEF734FF41B211B15046FEF7B5FFFEF764
:101B7000CDFE0028F4DC49465046FEF7B7FF401C76
:101B80000FD141465046FEF7B1FF401C09D13946FE
:101B90005046FEF7ABFF401C03D13068001BA84243
:101BA000E5D30EA10648FEF7A1FF401C05D10EA10A
:101BB0000348FEF79BFF401C00D00120BDE8F88FD2
:101BC0006000002041542B43495053544152543D2E
:101BD00022000000222C2200222C00004F4B00008B
:101BE0004552524F52000000414C52454144592049
:101BF000434F4E4E454354003400002070B50D460F
:101C00000446FEF729FC134A00200121107012A09F
:101C1000FEF7AAFE01212046FEF7A6FE012111A033
:101C2000FEF7A2FE01212846FEF79EFE01210EA02E
:101C3000FEF7BEFE42F210730CA20E490548FFF7F4
:101C40000DFF0C490348FEF751FF401C00D0012056
:101C500070BD00006000002041542B43574A4150A2
:101C60003D220000222C2200220000004641494C67
:101C700000000000001B000808B512490090002079
:101C80000870FEF7E9FB01210FA0FEF76DFE0021B1
:101C90006846FEF78DFE64230EA211490948FFF73E
:101CA000DDFE0F490748FEF721FF401C05D109A1C1
:101CB0000448FEF71BFF401C01D0002008BD012096
:101CC00008BD00006000002041542B43574D4F4495
:101CD000453D00006E6F206368616E67650000001F
:101CE000001B00081FB5FF208DF80C00FEF7B4FBA9
:101CF000012110A0FEF75CFE6420009001AB104AA9
:101D000010A11348FFF7C0FD00280FD001A8FEF76F
:101D10005AFAC0B28DF80C00032806D00320FFF752
:101D2000ABFF28B1FFF7C4FE10B1012004B010BD15
:101D30000020FBE741542B43574D4F44453F0000E3
:101D4000801600082B43574D4F44453A00000000D1
:101D5000001B000848616E74656368204D435500A0
:101D6000436F6D6D616E643A0000404040404040FA
:101D7000404040414141414140404040404040405E
:101D800040404040404040404040050202020202C4
:101D9000020202020202020202022020202020206F
:101DA00020202020020202020202029090909090D5
:101DB00090101010101010101010101010101010A3
:101DC000101010101002020202020288888888880F
:101DD0008808080808080808080808080808080803
:101DE0000808080808020202024000006A1D0008F4
:101DF000101E000800000020500000003C130008E6
:101E0000601E000850000020D00600004C1300089F
:101E10004900000000000000000000000204060865
:101E20000000000001020304010203040607080980
:101E300000A24A04000000000000000001020304A8
:101E40000607080900000000000000000000000074
:101E50000000000000000000000000000000000082
:0400000508000131BD
:00000001FF
